:020000040800F2
:1000000000800120A9020008550200085D020008D6
:10001000650200086D02000875020008000000007B
:100020000000000000000000000000007D02000849
:100030008B0200080000000099020008E90C00088B
:10004000F9020008F9020008F9020008F9020008A4
:10005000F9020008F9020008F9020008F902000894
:10006000F9020008F9020008F9020008F902000884
:10007000F9020008F9020008F9020008F902000874
:10008000F9020008F9020008F90200080000000067
:10009000000000000000000000000000F90200085D
:1000A000F9020008F9020008F9020008F902000844
:1000B000F9020008F9020008F9020008F902000834
:1000C000F9020008F9020008F9020008F902000824
:1000D000F9020008F9020008F90200080000000017
:1000E000F9020008F9020008F90200080000000007
:1000F000000000000000000000000000F9020008FD
:1001000000000000F9020008F9020008F9020008E6
:1001100000000000000000000000000000000000DF
:10012000F9020008F9020008F9020008F9020008C3
:10013000F9020008000000000000000000000000BC
:10014000000000000000000000000000F9020008AC
:10015000F9020008F9020008F9020008F902000893
:10016000F9020008F9020008000000000000000089
:10017000000000000000000000000000000000007F
:1001800000000000F902000800000000000000006C
:04019000F902000868
:1001940010B5054C237833B9044B13B10448AFF3BD
:1001A40000800123237010BD08000020000000001F
:1001B4002432000808B5034B1BB103490348AFF3CD
:1001C400008008BD000000000C000020243200085C
:1001D40080B582B002AF00F0C5F800F0C5FB002185
:1001E400174800F0F7FE164800F03BFF1549144885
:1001F40002F050F8FF230093FF23FF220021104850
:1002040002F027F9002300930023002201210C4867
:1002140002F01FF90A4802F017FA0B4B009300236F
:100224000C220021064801F071FF084B00930023C3
:100234001A220021024801F069FF00F075FCFCE776
:1002440024000020683300083C3200084C320008C7
:1002540080B400AF00BFFDE780B400AF00BFFDE78E
:1002640080B400AF00BFFDE780B400AF00BFFDE77E
:1002740080B400AF00BFFDE780B400AF00BFBD464F
:100284005DF8047B704780B400AF00BFBD465DF8E5
:10029400047B704780B400AF00BFBD465DF8047BAB
:1002A40070470000DFF834D000F026F80C480D4900
:1002B4000D4A002302E0D458C4500433C4188C42BD
:1002C400F9D30A4A0A4C002301E013600432A24223
:1002D400FBD302F081FFFFF77BFF70470080012012
:1002E4000000002008000020183B0008080000203F
:1002F4007C120020FEE7000080B500AF164BD3F857
:100304008830154A43F47003C2F88830134B1B68D5
:10031400124A43F001031360104B00229A600F4B02
:100324001B680E4A23F0847323F4803313600B4B51
:100334000B4A5A60094B1B68084A23F48023136054
:10034400064B0022DA6000F08FF8034B4FF0006296
:100354009A6000BF80BD00BF00ED00E0003802409D
:100364001030002480B487B000AF00233B61002329
:100374007B610223FB600023BB6002237B60354B5F
:100384009B6803F00C033B613B69082B11D03B696C
:10039400082B44D83B69002B03D03B69042B04D0C1
:1003A4003DE02D4B2D4A1A603DE02B4B2C4A1A6040
:1003B40039E0284B5B689B0D03F00103BB60254BC0
:1003C4005B6803F03F037B60BB68002B0CD0244ABE
:1003D4007B68B2FBF3F31F4A52689209C2F3080226
:1003E40002FB03F37B610BE01C4A7B68B2FBF3F373
:1003F400184A52689209C2F3080202FB03F37B61B4
:10040400144B5B681B0C03F0030301335B00FB60BC
:100414007A69FB68B2FBF3F30F4A136003E00E4BF7
:100424000E4A1A6000BF0B4B9B681B0903F00F03B5
:100434000C4AD35CDBB23B61074B1A683B6922FA76
:1004440003F3054A136000BF1C37BD465DF8047B07
:10045400704700BF00380240000000200024F40070
:1004640040787D016832000880B400AF234B1B6CD8
:10047400224A43F080531364214B1B68204A43F4FF
:10048400404313601D4B1D4A9B6893601B4B1B4AE2
:100494009B689360194B9B68184A43F4805393609C
:1004A400164B184A5A60154B1B68144A43F0807364
:1004B400136000BF114B1B6803F00073002BF9D0CD
:1004C400114B40F202621A600C4B9B680B4A23F0FA
:1004D40003039360094B9B68084A43F0020393604B
:1004E40000BF064B9B6803F00C03082BF9D100BF37
:1004F40000BFBD465DF8047B704700BF0038024072
:100504000070004010540108003C024080B489B0DF
:1005140000AF78600023BB6100237B610023FB6193
:1005240002233B610023FB600223BB604A4B9B68B0
:1005340003F00C03BB61BB69082B11D0BB69082B0A
:1005440044D8BB69002B03D0BB69042B04D03DE025
:100554007B68424A1A603DE07B68414A1A6039E090
:100564003D4B5B689B0D03F00103FB603A4B5B68FA
:1005740003F03F03BB60FB68002B0CD0384ABB6818
:10058400B2FBF3F3344A52689209C2F3080202FB45
:1005940003F3FB610BE0314ABB68B2FBF3F32E4A71
:1005A40052689209C2F3080202FB03F3FB612A4B6F
:1005B4005B681B0C03F0030301335B003B61FA69C6
:1005C4003B69B2FBF3F27B681A6003E07B68234A61
:1005D4001A6000BF204B9B6803F0F003BB61BB694A
:1005E4001B09BB611F4ABB6913441B78DBB27B61E7
:1005F4007B681A687B69DA407B685A60164B9B6893
:1006040003F4E053BB61BB699B0ABB61154ABB6938
:1006140013441B78DBB27B617B685A687B69DA40E0
:100624007B689A600C4B9B6803F46043BB61BB69B5
:100634005B0BBB610B4ABB6913441B78DBB27B6168
:100644007B685A687B69DA407B68DA6000BF2437CC
:10065400BD465DF8047B7047003802400024F40076
:1006640040787D017832000880B483B000AF7860B0
:100674000B46FB70FB78002B06D00A4B1A6B09491A
:100684007B6813430B6306E0064B1A6B7B68DB4302
:10069400044913400B6300BF0C37BD465DF8047B6F
:1006A400704700BF0038024080B584B000AFF860E6
:1006B400B96011461A460B46FB711346BB80BB68F2
:1006C400BA881A80BB68FA791A71BB68FA68DA606A
:1006D400B86800F036F800BF1037BD4680BD80B45E
:1006E40083B000AF78607B685B8818460C37BD46E2
:1006F4005DF8047B704780B483B000AF78607B689A
:100704005A887B681B889A422CBF01230023DBB2E2
:1007140018460C37BD465DF8047B704780B483B03F
:1007240000AF78607B68DA887B681B899A420CBFCB
:1007340001230023DBB218460C37BD465DF8047B69
:10074400704780B582B000AF78607B680022DA80A1
:100754007B6800221A817B6800225A807B68D868F3
:100764007B681B881A46002100F098F800BF083700
:10077400BD4680BD80B584B000AF7860396072B684
:1007840000BF0023FB7321E0FB7B3A681A447B68BB
:10079400DB687968C9880B4412781A707B68DB8837
:1007A40001339BB21AB27B681B88013B9BB21BB21C
:1007B40013401BB29AB27B68DA807B685B88013392
:1007C4009AB27B685A80FB7B0133FB737B681B798D
:1007D400FA7B9A42D8D37868FFF78DFF0346002B43
:1007E40010D07B681B897A68127913449BB21AB2C1
:1007F4007B681B88013B9BB21BB213401BB29AB2AD
:100804007B681A8162B600BF002318461037BD46C4
:1008140080BD80B584B000AF7860396072B600BF27
:100824007868FFF77BFF0346002B06D07B68002225
:100834005A8062B600BF02232CE00023FB7321E040
:100844007B68DB687A6812891A44FB7B39680B443D
:1008540012781A707B681B8901339BB21AB27B68C9
:100864001B88013B9BB21BB213401BB29AB27B683C
:100874001A817B685B88013B9AB27B685A80FB7B58
:100884000133FB737B681B79FA7B9A42D8D362B637
:1008940000BF002318461037BD4680BD80B483B026
:1008A40000AF78600B46FB7013463B8004E07B6826
:1008B4005A1C7A60FA781A703B885A1E3A80002BC8
:1008C400F5D100BF00BF0C37BD465DF8047B70470F
:1008D40080B483B000AF03463960FB7197F90730E9
:1008E400002B0BDA3B68DAB20C49FB7903F00F03F7
:1008F400043B1201D2B20B441A7609E03B68DAB227
:10090400074997F907301201D2B20B4483F8002348
:1009140000BF0C37BD465DF8047B704700ED00E076
:1009240000E100E080B582B000AF78607B68013BF5
:10093400B3F1807F01D301230FE00A4A7B68013BB6
:1009440053600F214FF0FF30FFF7C2FF054B002229
:100954009A60044B07221A60002318460837BD46E4
:1009640080BD00BF10E000E080B584B000AF3B461E
:100974001846FFF7CBFD3B680A4AA2FB03239B09F9
:100984001846FFF7CFFF01214FF0FF30FFF7A0FF1C
:100994004FF4C07200210448FFF780FF00BF1037F6
:1009A400BD4680BDD34D6210D800002090B587B0FD
:1009B40000AFF860B9603B601346FB710023FB7520
:1009C4004CE0FA7D294913465B001344DB000B44D9
:1009D40010331B68002B3ED1FA7D244913465B007B
:1009E4001344DB000B44FA681A60FA7D1F4913466E
:1009F4005B001344DB000B4410333A681A60FA7D41
:100A04001A4913465B001344DB000B440C33FA7998
:100A14001A70FA7D154913465B001344DB000B443E
:100A24001433BA6A1A60FC7D00F072F801460F4A6A
:100A340023465B002344DB00134404331960FA7D2E
:100A44000A4913465B001344DB000B440833BA68BD
:100A54001A60FB7D06E0FB7D0133FB75FB7D0F2BEC
:100A6400AFD9FF2318461C37BD4690BDD8000020DF
:100A740080B483B000AF0346FB71FB790F2B0AD817
:100A8400FA79224913465B001344DB000B4410330C
:100A94001B68002B01D1002331E0FA791B4913466E
:100AA4005B001344DB000B4400221A60FA791749F7
:100AB40013465B001344DB000B44103300221A601E
:100AC400FA79124913465B001344DB000B440C33E0
:100AD40000221A70FA790D4913465B001344DB00B7
:100AE4000B44083300221A60FA79084913465B0064
:100AF4001344DB000B44043300221A60012318461C
:100B04000C37BD465DF8047B704700BFD800002059
:100B140080B400AF034B1B681846BD465DF8047BE8
:100B2400704700BF5802002080B584B000AF002396
:100B3400FB7368E0FA7B374913465B001344DB0020
:100B44000B4410331B68002B5AD0FB7B184600F073
:100B540063F80346002B53D0FA7B2E4913465B00FF
:100B64001344DB000B4410331B68BB60FA7B294938
:100B740013465B001344DB000B4414331B687B6097
:100B8400FA7B244913465B001344DB000B440C330B
:100B94001B78DBB2FF2B20D0FA7B1E4913465B0087
:100BA4001344DB000B440C331B78DBB2002B14D052
:100BB400FA7B184913465B001344DB000B440C33E7
:100BC4001B78DBB2013BD8B2124913465B001344D5
:100BD400DB000B440C3302461A70FA7B0D491346B2
:100BE4005B001344DB000B440C331B78DBB2002B9B
:100BF40003D1FB7B1846FFF73BFFBB687868984737
:100C0400FB7B0133FB73FB7B0F2B93D900BF1037A6
:100C1400BD4680BDD800002080B584B000AF034637
:100C2400FB710023FB6072B6FFF772FFB860FB79BB
:100C34000F2B0AD8FA792A4913465B001344DB00C8
:100C44000B4410331B68002B02D162B6002342E030
:100C5400FA79234913465B001344DB000B44043345
:100C64001B68BA689A420CD3FA791D4913465B0093
:100C74001344DB000B4404331B68BA68D31AFB60CB
:100C84000EE0FA79164913465B001344DB000B446B
:100C940004331A68BB68D31AFB60FB68DB43FB6050
:100CA400FA790F4913465B001344DB000B44083305
:100CB4001B68FA689A4202D262B600230BE0FA7902
:100CC400074913465B001344DB000B440433BA6842
:100CD4001A6062B6012318461037BD4680BD00BFB6
:100CE400D800002080B400AF044B1B680133034AD2
:100CF400136000BFBD465DF8047B704758020020B6
:100D040080B483B000AF786000BF0C37BD465DF897
:100D1400047B704780B582B000AF01210720FFF744
:100D2400A3FC01233B7103237B710023BB710023CC
:100D3400FB714FF468733B603B4619460A4801F067
:100D44009DFC4FF488633B603B461946074801F01D
:100D540095FC80233B603B461946054801F08EFC18
:100D640000BF0837BD4680BD0000024000040240B9
:100D74000008024080B584B000AF78600B46FB7079
:100D84000823FB7397F90330002B05DA0122802135
:100D9400144801F001FD04E000228021114801F013
:100DA400FBFC0120FFF7ACFF012220210D4801F0DC
:100DB400F3FC0120FFF7A4FFFB7B013BFB73002244
:100DC4002021084801F0E8FC0120FFF799FFFB7897
:100DD4005B00FB70FB7B002BD4D100BF1037BD46FA
:100DE40080BD00BF0000024080B584B000AFF86051
:100DF4007B600B467B8113463B81B7F90A300A3B83
:100E04000B2B00F2DC8001A252F823F0410E000803
:100E1400C30F0008930E00089D0E0008AD0E0008D5
:100E2400BD0E0008CF0E0008EF0E0008170F0008D3
:100E34004D0F00086B0F0008BB0F0008FFF76AFF97
:100E440001228021604801F0A7FC012240215F4873
:100E540001F0A2FC012280215D4801F09DFC0122E9
:100E64004FF40071584801F097FC002220215648A5
:100E740001F092FC01224FF48061544801F08CFC93
:100E840001224FF48071504801F086FC97E03B89C1
:100E94001846FFF735FF92E03B89DBB21A46802102
:100EA4004B4801F079FC8AE03B89DBB21A464021C9
:100EB400464801F071FC82E03B89DBB21A464FF4EC
:100EC4000071414801F068FC79E03B89DBB21946C6
:100ED400F868FFF74FFF72E07B681B781946F868E3
:100EE400FFF748FF3B89013B3B813B89002BF3D152
:100EF40065E07B681B781946F868FFF73BFF7B6861
:100F040001331B781946F868FFF734FF3B89013B2E
:100F14003B813B89002BECD151E07B681B7819465F
:100F2400F868FFF727FF7B6801331B781946F868D8
:100F3400FFF720FF7B6802331B781946F868FFF738
:100F440019FF3B89013B3B813B89002BE5D136E00E
:100F54007B685A1C7A601B781946F868FFF70AFF09
:100F64003B89013B3B813B89002BF1D127E07B6826
:100F74001B78002B10D07B681B78012B06D1002234
:100F84004FF40071104801F007FC05E001224FF412
:100F940000710D4801F000FC7B6801337B607B68C5
:100FA4001B781946F868FFF7E5FE7B6801337B6020
:100FB4003B89013B3B813B89002BD8D100BF0123F6
:100FC40018461037BD4680BD0000024000040240B0
:100FD4000008024080B582B000AF78600B46FB7019
:100FE400074B084A0849786801F0A2F9FB781946CA
:100FF400786800F086FF00BF0837BD4680BD00BF9B
:10100400ED0D0008451600086D17000880B584B082
:1010140000AFF860084611461A4603467B810B462A
:101024003B811346FB8014E0B7F90630B7F908207A
:10103400B7F90A10F86801F0EDF9B7F918309BB266
:10104400013B9BB23B83B7F908309BB201339BB29F
:101054003B81B7F91830002BE6DC00BF1037BD46E2
:1010640080BD80B584B002AF786000230093002374
:1010740000220021786801F0ECF9786800F03BFB6D
:101084007B68B3F902207B68B3F9043000931346FC
:10109400002200217868FFF7B9FFFF230093FF23A4
:1010A400FF220021786801F0D4F900BF0837BD465B
:1010B40080BD80B483B000AF7860084611461A46FC
:1010C4000346FB700B46BB7013463B807B68FA7883
:1010D4005A70BB789AB2FB789BB2D31A9BB21AB2FD
:1010E4007B689A803B88013B9BB21AB27B681A8169
:1010F4007B6801225A807B68B3F904301A467B6806
:10110400B3F9083092FBF3F31AB27B68DA807B6898
:10111400B3F90430002B0CDA7B68B3F904309BB2CA
:101124005B429BB21AB27B689A807B684FF6FF726F
:101134005A807B68B3F904307A68B2F9082093FBCB
:10114400F2F102FB01F29B1A1AB27B685A817B68A6
:10115400B3F90830DA0F13445B101AB27B689A8132
:101164007B68FA781A7000BF0C37BD465DF8047BC3
:10117400704780B483B000AF78607B681A787B686E
:10118400B3F90630DBB21344DAB27B681A707B68B9
:10119400B3F90C309AB27B68B3F90A309BB21344AA
:1011A4009BB21AB27B689A817B68B3F90C207B6886
:1011B400B3F908309A4216DB7B681A787B68B3F976
:1011C4000230DBB21344DAB27B681A707B68B3F97D
:1011D4000C309AB27B68B3F908309BB2D31A9BB235
:1011E4001AB27B689A8100BF0C37BD465DF8047B58
:1011F400704780B485B000AF78600B467B807B6815
:10120400B3F90630DAB27B681A707B681A787B8887
:10121400DBB212FB03F3DAB27B681A707B68B3F9B2
:101224000A309AB27B8812FB03F39AB27B68B3F953
:101234000830D90F0B445B101BB29BB213449BB212
:10124400FB817B68B3F90230002B0EDB7B681A78D4
:10125400B7F90E307968B1F9081093FBF1F3DBB2FA
:101264001344DAB27B681A700DE07B681A78B7F918
:101274000E307968B1F9081093FBF1F3DBB2D31A9D
:10128400DAB27B681A70B7F90E307A68B2F90820BE
:1012940093FBF2F102FB01F29B1A1AB27B689A816A
:1012A4007B681A787B685B781344DAB27B681A70BF
:1012B40000BF1437BD465DF8047B704780B584B029
:1012C40000AFF8600B467A607B81B7F90A300C2BCB
:1012D4000AD0172B0FD1FB68DB68B7F90A107A68BC
:1012E400F8689847034607E0FB687A68703310682B
:1012F400516803C300BF012318461037BD4680BDA3
:1013040080B485B000AFF8600B467A607B8101231E
:1013140018461437BD465DF8047B704790B585B018
:1013240000AF7860786801F0EDFA0346002B53D0E3
:101334007B68B3F92E30012B08D0022B0BD0002B85
:101344001BD12849786801F00BFE28E0264978680B
:1013540001F006FE23E07B689B8CFB81FB89C3F1D3
:101364007F039BB21AB27B689A842049786801F0A3
:10137400F7FD7B68FA899A8411E07B68DB8CFB813A
:10138400FB89C3F17F039BB21AB27B68DA841849E4
:10139400786801F0E5FD7B68FA89DA8400BF7B6830
:1013A40093F828303B727B6893F829307B727B6812
:1013B40093F82A30BB727B68DC697B68B3F92C3004
:1013C4009AB207F1080313217868A04701217868CD
:1013D40001F012FD012300E0002318461437BD4636
:1013E40090BD00BFA8320008C8320008EC320008E3
:1013F4001033000890B587B000AF78600023FB7508
:101404001AE07B6803F14601FA7D1346DB009B1A60
:101414005B00C818FB7D7A68134493F83A10FB7D8F
:101424007A68134493F83D207B68B3F92C30FFF7B6
:1014340040FEFB7D0133FB75FB7D022BE1D978680F
:1014440001F0E0FB0346002B71D07B68B3F92E302A
:10145400012B08D0022B0BD0002B1BD13649786806
:1014640001F07EFD28E03549786801F079FD23E03C
:101474007B689B8C7B827B8AC3F17F039BB21AB20D
:101484007B689A842E49786801F06AFD7B687A8AC1
:101494009A8411E07B68DB8C7B827B8AC3F17F03B7
:1014A4009BB21AB27B68DA842649786801F058FD49
:1014B4007B687A8ADA8400BF0023BB822AE07B68D7
:1014C40093F846303B737B6893F854307B737B68A6
:1014D40093F86230BB737B68DC6907F10C0301226B
:1014E40013217868A0477B6846331846FFF741FE0E
:1014F4007B6846330E331846FFF73BFE7B68463362
:101504001C331846FFF735FEB7F914309BB201338C
:101514009BB2BB827B68B3F92C30B7F914209A4292
:10152400CDDB0121786801F067FC012300E0002392
:1015340018461C37BD4690BDA8320008C8320008C2
:10154400EC3200081033000890B587B000AFF860A3
:101554000B467A607B81B7F90A300A3B0B2B5FD8C4
:1015640001A252F823F000BF9D150008B71500082A
:10157400251600082516000825160008C3150008BE
:10158400251600082516000825160008251600084B
:10159400D31500081B160008FB6802221A84FB6896
:1015A40001225A8442226421F86801F074FB034644
:1015B4003EE02149F86801F0D3FC012338E07B6860
:1015C40080221A807B6880225A80012330E0F868E8
:1015D40001F07EF90346002B1BD01849F86801F08E
:1015E400BFFCFB6893F828303B75FB6893F82930FF
:1015F4007B75FB6893F82A30BB75FB68DC6907F1DF
:10160400140301221321F868A0470121F86801F0AE
:10161400F3FB01230CE0F868FFF780FE012307E0E9
:10162400B7F90A307A681946F868FFF747FE0346A7
:1016340018461C37BD4690BD343300088832000874
:1016440080B584B000AFF8600B467A607B81B7F94F
:101654000A30172B03D1F868FFF7CCFE00BF012333
:1016640018461037BD4680BD80B582B000AF7860A3
:101674007B681B7803F00103DBB2002B0AD07B6884
:101684009B6800220B21786898477A6813786FF377
:101694000003137000BF0837BD4680BD80B584B019
:1016A40000AF78607868FFF7DFFF7B689B680022F3
:1016B4000A21786898470346FB81B7F90E30002B5E
:1016C40004D07A68137843F001031370B7F90E302D
:1016D40018461037BD4680BD80B582B000AF786033
:1016E40039607B689B683A680C217868984700BF2A
:1016F4000837BD4680BD80B584B000AF78607A6895
:1017040007F10C0302321068186000233B810023A8
:101714007B8107F1080319467868FFF7DDFF00BFF6
:101724001037BD4680BD80B582B000AF78607B685D
:101734009B687A6802320F21786898477868FFF7C7
:10174400DAFF00BF0837BD4680BD80B582B000AF68
:1017540078607B689B687A6824321521786898479A
:1017640000BF0837BD4680BD80B584B000AFF860C7
:101774000B467A607B81B7F90A300B2B15D00F2BFF
:101784001CD00A2B22D1B7F90A307A681946F868B6
:10179400FFF7DAFE0346002B01D100231EE01149B6
:1017A400F86801F0DDFB012318E0B7F90A307A6824
:1017B4001946F868FFF7C8FE03460FE07B688022ED
:1017C4001A807B6880225A80012307E0B7F90A3027
:1017D4007A681946F868FFF7B7FE034618461037CB
:1017E400BD4680BD3C33000880B483B000AF786050
:1017F4000B46FB70FB787A6813447B607B681B782C
:1018040018460C37BD465DF8047B704780B485B03C
:1018140000AF78600B46FB70FB787A6813447B60FA
:101824007B681B78FB817B6801337B60FB891B022F
:10183400FB817B681B789AB2FB891344FB81FB898B
:1018440018461437BD465DF8047B704780B582B0F6
:1018540000AF7860396000213868FFF7C5FF0346A0
:101864001A467B681A7001213868FFF7BDFF0346EA
:101874001A467B685A7002213868FFF7B5FF0346A1
:101884001A467B689A7003213868FFF7ADFF034658
:101894001A467B68DA7004213868FFF7A5FF03460F
:1018A4001A467B681A7105213868FFF79DFF0346C5
:1018B4001A467B685A7106213868FFF795FF03467C
:1018C4001A467B689A7107213868FFF78DFF034633
:1018D4001A467B68DA7108213868FFF785FF0346EA
:1018E4001A467B681A7209213868FFF77DFF0346A0
:1018F4005AB27B685A720A213868FFF775FF0346AB
:101904005AB27B689A720B213868FFF76DFF034661
:101914005AB27B68DA720C213868FFF765FF034618
:101924005AB27B681A730D213868FFF75DFF0346CE
:101934005AB27B685A730E213868FFF755FF034685
:101944005AB27B689A730F213868FFF74DFF03463C
:101954005AB27B68DA7310213868FFF745FF0346F3
:101964005AB27B681A7411213868FFF74FFF034697
:101974001A467B685A8213213868FFF747FF0346EB
:101984001A467B689A8200BF0837BD4680BD80B482
:1019940085B000AF78600B46FB707B681B7B7B7364
:1019A4007B681B681B78FB73FA7B7B7B42FA03F32F
:1019B400FB737B7BBB73BA7BFB781344BB73BB7B2E
:1019C400072B1AD908233B733A7B7B7BD31A3B73CF
:1019D4007B681B685A1C7B681A607B681B681B78D1
:1019E4001A463B7B02FA03F35AB297F90F301343BA
:1019F4005BB2FB73BB7B083BBB73FB784FF0FF32DE
:101A040002FA03F3DBB2DB43DAB2FB7B1340FB7372
:101A14007B68BA7B1A73FB7B18461437BD465DF8A6
:101A2400047B704780B584B000AF78600B46FB70D0
:101A3400FB7819467868FFF7AAFF0346FB73012376
:101A4400BB73FB78013BFB7097F90E20FB7802FA1D
:101A540003F3BB73FA7BBB7BD31ADBB2FB7397F93B
:101A64000F3018461037BD4680BD90B482B000AF29
:101A74000446084611461A462346FB8003467B71FA
:101A84000B463B711346FB70FB78012B0BD0022BEA
:101A940011D0002B17D197F904309AB2FB88134464
:101AA4009BB2FB8017E097F905309AB2FB88134488
:101AB4009BB2FB800FE0FA8897F904309BB2D31AEB
:101AC4009BB2FB8007E0FA8897F905309BB2D31AE2
:101AD4009BB2FB8000BFB7F9063018460837BD46F5
:101AE40090BC704790B482B000AF044608461146DB
:101AF4001A462346FB8003467B710B463B71134613
:101B0400FB70FB78012B0BD0022B11D0002B17D1CB
:101B140097F905309AB2FB8813449BB2FB8017E017
:101B2400FA8897F904309BB2D31A9BB2FB800FE07A
:101B3400FA8897F905309BB2D31A9BB2FB8007E071
:101B440097F904309AB2FB8813449BB2FB8000BF20
:101B5400B7F9063018460837BD4690BC704790B5B3
:101B640089B002AF78600B46FB701346BB707B688C
:101B740080333B61FB78FB753B6993F908307B75D7
:101B84003B6993F909303B753B6993F90A30FB7360
:101B9400FA7B7B7DD31AFB73FB7BBB75FA7DFB7BE6
:101BA4009A4201D2FB7DBB753B699B88BB813B6933
:101BB400DB887B8197F9151097F914203B699B7B8F
:101BC400B7F90C00FFF78EFF0346BB8197F9151098
:101BD40097F914203B699B7BB7F90A00FFF745FF8F
:101BE40003467B81BB78002B11D0BB7D1CB23B69C3
:101BF4009B7B1BB2B7F90A00B7F90C1000220192C3
:101C0400009323460246786800F0C0FB14E03B6969
:101C14005B7B002B10D1BB7D1CB23B699B7B1BB251
:101C2400B7F90A00B7F90C10012201920093234678
:101C34000246786800F0AAFBFA7DFB7B9A4209D33E
:101C4400FA7DFB7BD31AFB7500237B753B7D013347
:101C54003B7599E700BF7A7DFB7D13447B7597F94B
:101C640015203B691A7297F914203B695A7200BF18
:101C74001C37BD4690BD80B584B000AF7860396034
:101C84007B688033FB60FB683A681A60FB6800225B
:101C94001A73FB681B685A1CFB681A60FB681B6894
:101CA4005A1CFB681A607B6893F894301946F868EC
:101CB400FFF76DFE03465AB2FB689A727B6893F88D
:101CC40095301946F868FFF762FE03465AB2FB687E
:101CD400DA7200BF1037BD4680BD80B584B000AF56
:101CE4007860396039687868FFF7C5FF7B6893F8D6
:101CF4008B30FB737B6803F180027B6893F896302A
:101D040019461046FFF78EFE0346BB737B6803F14A
:101D140080027B6893F8973019461046FFF782FEDD
:101D240003467B737B6803F180027B6893F89830E9
:101D340019461046FFF776FE03463B737B6893F91A
:101D44008A30002B69DD7B68B3F98400FA7B7B7BE6
:101D54001344DBB25B42DBB25AB27B6893F88E3039
:101D640097F90E10FFF7BEFE03461A467B68A3F8E8
:101D740084207B68B3F98600FA7B7B7B1344DBB257
:101D84005B42DBB25AB27B6893F88E3097F90E103F
:101D9400FFF76BFE03461A467B68A3F886207B6830
:101DA400002283F888207B68002283F889207B68DE
:101DB40003F180027B6893F8923019461046FFF7CE
:101DC400E6FD0346FB727B6803F180027B6893F8AF
:101DD400933019461046FFF7DAFD0346BB72FB7ACF
:101DE400002219467868FFF7BAFEBB7A0122194629
:101DF4007868FFF7B4FE7B68803301211846FFF74B
:101E0400C6FD0346002BEAD17B6893F9893097F924
:101E14000F209A4200DDCAE700BF97F90C3018463C
:101E24001037BD4680BD80B485B000AF78600B46E6
:101E3400FB707B689B6FFB60FB681533FB60FB7872
:101E4400602B07D97B68B3F8A4301A46FB681344A7
:101E5400FB6009E0FB78402B06D97B68B3F8A2301D
:101E64001A46FB681344FB60FB6801331B78002BA4
:101E74000ED0FB681B78FA789A4201D1FB6809E01E
:101E8400FB6801331B781A46FB681344FB60EBE7DD
:101E940000BF002318461437BD465DF8047B704725
:101EA40080B586B000AFF860084611461A4603466E
:101EB4007B810B463B811346FB710023FB82FB684D
:101EC4007A89A3F88420FB683A89A3F88620FB6802
:101ED400FA7983F88E2097F820301946F868FFF7CE
:101EE400A2FF38613B69002B05D03969F868FFF718
:101EF400F4FE0346FB82B7F9163018461837BD4680
:101F040080BD80B483B000AF78600B46FB707B6803
:101F1400FA7883F88D2000BF0C37BD465DF8047B4A
:101F24007047000080B586B002AFF86008461146DD
:101F34001A4603467B810B463B811346FB71FB79B2
:101F4400032B37D801A252F823F000BF611F000809
:101F5400771F00088D1F0008A31F0008FB68DB6FB4
:101F6400F868984703469AB23B8913449BB23B8175
:101F740020E0FB68DB6FF868984703467A899BB2D8
:101F8400D31A9BB27B8115E0FB68DB6FF868984736
:101F940003463A899BB2D31A9BB23B810AE0FB68A1
:101FA400DB6FF868984703469AB27B8913449BB267
:101FB4007B8100BFF879B7F90820B7F90A103B7E96
:101FC40000930346F868FFF76BFF03461846103783
:101FD400BD4680BD80B586B002AF78600023FB812A
:101FE4007B68BB60454B1B78002B02D0012B1ED0B5
:101FF4007BE04348FEF773FB0346002B07D04149BF
:102004003F48FEF706FC3D4B01221A7071E03E4B3F
:102014001B78FF2B07D03C4B1B781846FEF728FD96
:10202400394BFF221A70354B00221A7061E0354B90
:102034009B681B78002B54D0324BB3F90010314B02
:10204400B3F902202F4B18792E4B9B681B78009311
:102054000346B868FFF766FF0346FB81294B1B79EB
:10206400032B37D801A252F823F000BF81200008C7
:1020740097200008AD200008C3200008214BB3F9C5
:1020840000309AB2FB8913449BB21AB21D4B1A80DA
:1020940021E01C4BB3F902309AB2FB8913449BB282
:1020A4001AB2184B5A8016E0164BB3F900309AB2A4
:1020B400FB89D31A9BB21AB2124B1A800BE0114B54
:1020C400B3F902309AB2FB89D31A9BB21AB20D4B00
:1020D4005A8000E000BF0B4B9B680133094A9360B0
:1020E40007E0064B00221A7003E0044B00221A702A
:1020F40000BF00BF1037BD4680BD00BF6C1200207A
:102104005C020020701200200400002080B58AB018
:1021140002AFF860084611461A4603467B810B4617
:102124003B811346FB710023FB837B893B823B8904
:102134007B82FB793B75BB6ABB6107F110031946CF
:102144000C48FEF717FB0C4B1B78FF2B0BD1FB68DD
:1021540000930A4BFF221E210948FEF727FC034681
:102164001A46054B1A70B7F91E3018462037BD467B
:1021740080BD00BF5C02002004000020D91F0008BD
:102184005832000880B483B000AF78607B689B6FDE
:10219400002B5DD07B6893F99D207B6883F8AC208D
:1021A4007B6893F99E207B6883F8AD207B6893F865
:1021B400AB30002B4DD07B6893F8AB30012B1CD196
:1021C4007B6893F9AC207B6893F99F309A4205DAD7
:1021D4007B6893F99F207B6883F8AC207B6893F934
:1021E400AD207B6893F9A0309A4232DD7B6893F985
:1021F400A0207B6883F8AD202BE07B6893F9AC309A
:102204001A467B6893F99A3019467B6893F99C3097
:102214000B449A420DDA7B6893F99A30DAB27B6800
:1022240093F99C30DBB21344DBB25AB27B6883F877
:10223400AC207B6893F9AD207B6893F99C309A427B
:1022440007DD7B6893F99C207B6883F8AD2000E070
:1022540000BF0C37BD465DF8047B704780B483B083
:1022640000AF7860002318460C37BD465DF8047B48
:102274007047000080B483B000AF78607B68044A84
:10228400DA6700BF0C37BD465DF8047B704700BFBA
:102294006122000880B582B000AF786039607B6845
:1022A4009B6F3A689A4212D07B683A689A677B6857
:1022B400903339681846FFF7C9FA7868FFF762FF68
:1022C4004FF480530C2204490448FEF7EDF900BF93
:1022D4000837BD4680BD00BF5C0200206C020020B0
:1022E40080B483B000AF78607A6813786FF300032A
:1022F40013707B6800221A617B6801225A867B680E
:1023040000229A677B68012283F88D207B68002273
:1023140083F8AE207B68002283F8AF207B6800221C
:1023240083F8B02000BF0C37BD465DF8047B7047CE
:1023340080B586B000AFF860B9607A603B60F86839
:10234400FFF7CEFF7B68002B03D1FB680E4ADA60EF
:1023540002E0FB687A68DA60FB68BA689A60FB6836
:102364003A68DA61F868FFF785FFF868FFF796F9CD
:102374000346FB82F868FFF7D6F9B7F9163018461A
:102384001837BD4680BD00BF0513000880B584B072
:1023940000AFF860084611461A4603467B810B4697
:1023A4003B811346FB80B7F91C20F96813465B0098
:1023B40013440B443A331A78FB6883F82820B7F99E
:1023C4001C20F96813465B0013440B443B331A7812
:1023D400FB6883F82920B7F91C20F96813465B00D1
:1023E40013440B443C331A78FB6883F82A20FB68B7
:1023F4007A899A84FB683A89DA84FB68FA889A8530
:10240400FB683A8BDA85F868FFF79FF900BF10374D
:10241400BD4680BD80B586B002AFF860084611465F
:102424001A4603467B810B463B811346FB80B7F972
:102434000600B7F90820B7F90A1000230193002316
:1024440000930346F868FFF7A1FF00BF1037BD46AD
:1024540080BD80B483B000AF7860084611461A4648
:102464000346FB700B46BB7013467B70FA787968A1
:1024740013465B0013440B443A33BA781A70FA7863
:10248400796813465B0013440B443B337A781A7023
:10249400FA78796813465B0013440B443C333A7C66
:1024A4001A7000BF0C37BD465DF8047B704780B5D9
:1024B40082B000AF78607B681B69002B06D07B6814
:1024C4001A697B689A607B6800221A617868FFF752
:1024D4002AF97868FFF70FF900BF0837BD4680BDB9
:1024E40080B485B000AF786039607B68DB8AFB819B
:1024F400FA893B68B3F902309BB2D31A9BB2FB81D1
:10250400B7F90E309BB2013B9BB2FB813B68FA8961
:102514005A807B689B8ABB81BA893B68B3F90030D7
:102524009BB2D31A9BB2BB81B7F90C309BB2013B6F
:102534009BB2BB813B68BA891A8000BF1437BD4681
:102544005DF8047B7047000080B584B000AFF8608C
:102554000B467A607B81B7F90A300C3B0B2B66D8AB
:1025640001A252F823F000BFBB250008332600085F
:10257400332600089D25000833260008332600086A
:102584003326000833260008032600080326000823
:102594003326000803260008FB681B69FA68143216
:1025A400B7F90A10F86898477A68FB681433186812
:1025B4001060012343E07B68B3F902309AB27B6870
:1025C400B3F906309BB213449BB2013B9BB21AB2DF
:1025D4007B685A807B68B3F900309AB27B68B3F9A0
:1025E40004309BB213449BB2013B9BB21AB27B688A
:1025F4001A807B681946F868FFF772FF17E0FB68DA
:10260400B3F92E309BB202339BB21AB2FB68DA855F
:10261400FB68B3F92E3003F003031AB2FB68DA85C2
:10262400FB6824331946F868FFF75AFF00BFFB68BC
:102634001B69B7F90A107A68F86898470346184680
:102644001037BD4680BD00BF80B582B000AF786052
:102654007868FFF72CFF7B689A687B681A617B684F
:10266400054A9A607868FFF75EF87868FFF743F8E0
:1026740000BF0837BD4680BD4D25000880B487B033
:1026840000AF7860396000237B6100233B61002345
:10269400FB6000237B6176E001227B6902FA03F38D
:1026A4003B613B681B683A691340FB60FA683B690D
:1026B4009A4265D17B681A687B695B00032101FA41
:1026C40003F3DB431A407B681A607B681A683B6833
:1026D4001B7919467B695B0001FA03F31A437B6893
:1026E4001A603B681B79012B03D03B681B79022BD2
:1026F4002ED17B689A687B695B00032101FA03F39E
:10270400DB431A407B689A607B689A683B685B7914
:1027140019467B695B0001FA03F31A437B689A60EC
:102724007B685A687B699BB2194601238B40DB4363
:102734001A407B685A607B685B683A6892791146F4
:102744007A6992B201FA02F292B21A437B685A6031
:102754007B68DA687B699BB25B00032101FA03F3AF
:10276400DB431A407B68DA607B68DA683B68DB79B4
:1027740019467B695B0001FA03F31A437B68DA604C
:102784007B6901337B617B690F2B85D900BF1C37C3
:10279400BD465DF8047B704780B483B000AF7860B9
:1027A4000B467B8013467B707B78002B03D07B68C1
:1027B4007A881A8302E07B687A885A8300BF0C37D0
:1027C400BD465DF8047B704780B485B000AF786087
:1027D4007B689B8CFB81FA897B68B3F970309BB270
:1027E400D31A9BB2FB81B7F90E30002B01DA002318
:1027F40009E07B68B3F97430B7F90E209A4201DB23
:10280400002300E0012318461437BD465DF8047B1D
:10281400704780B485B000AF78607B68DB8CFB8147
:10282400FA897B68B3F972309BB2D31A9BB2FB81ED
:10283400B7F90E30002B01DA002309E07B68B3F905
:102844007630B7F90E209A4201DB002300E0012321
:1028540018461437BD465DF8047B704780B487B0D2
:1028640000AFF860B96011461A460B46FB80134668
:10287400BB80FB681B88FB82BB681B88BB82B7F9E3
:102884001620B7F904309A4201DB00231AE0B7F9A5
:102894001420B7F906309A4201DC002312E0B7F99C
:1028A4001620B7F906309A4202DAFB68FA881A80D1
:1028B400B7F91420B7F904309A4202DDBB68BA882C
:1028C4001A80012318461C37BD465DF8047B704707
:1028D40080B582B000AF78607868FFF775FF034673
:1028E400002B01D1002308E07868FFF792FF03462C
:1028F400002B01D1002300E0012318460837BD4610
:1029040080BD000090B585B000AF78607B68002280
:102914001A867B68B3F92E30032B00F26D8101A275
:1029240052F823F039290008DF290008852A000815
:10293400412B00087868FFF76CFF0346002B01D198
:1029440000235AE17B68B3F92430FB81B7F90E30D8
:10295400BB817B68B3F92C309AB2B7F90C309BB2C7
:1029640013449BB21BB2BB817B68B3F970407B6894
:10297400B3F970309AB27B68B3F974309BB21344E4
:102984009BB21BB207F10C0107F10E002246FFF7C0
:1029940065FF0346002B01D100232EE1B7F90E3069
:1029A4009AB27B68B3F924309BB2D31A9BB21AB2A1
:1029B4007B681A86B7F90E207B689A84B7F90C30C5
:1029C4009AB2B7F90E309BB2D31A9BB21BB2BB8139
:1029D400B7F90C207B689A850EE17868FFF7F4FE5E
:1029E4000346002B01D1002307E17B68B3F92630AD
:1029F400FB81B7F90E30BB817B68B3F92C309AB2F6
:102A0400B7F90C309BB213449BB21BB2BB817B68F9
:102A1400B3F972407B68B3F972309AB27B68B3F948
:102A240076309BB213449BB21BB207F10C0107F141
:102A34000E002246FFF712FF0346002B01D10023AC
:102A4400DBE0B7F90E309AB27B68B3F926309BB25B
:102A5400D31A9BB21AB27B681A86B7F90E207B6828
:102A6400DA84B7F90C309AB2B7F90E309BB2D31AA4
:102A74009BB21BB2BB81B7F90C207B689A85BBE083
:102A84007868FFF7C6FE0346002B01D10023B4E0AB
:102A94007B68B3F92430BB81B7F90C309BB20133A6
:102AA4009BB21BB2BB81B7F90C30FB81B7F90E3076
:102AB4009AB27B68B3F92C309BB2D31A9BB21BB287
:102AC400FB817B68B3F970407B68B3F970309AB2CC
:102AD4007B68B3F974309BB213449BB21BB207F109
:102AE4000C0107F10E002246FFF7B8FE0346002B47
:102AF40001D1002381E0B7F90C309AB2B7F90E3056
:102B04009BB2D31A9BB21AB27B689A85B7F90C3080
:102B14009BB2013B9BB21BB2BB817B68B3F92430EF
:102B24009AB2B7F90C309BB2D31A9BB21AB27B6833
:102B34001A86B7F90C207B689A845DE07868FFF701
:102B440043FE0346002B01D1002356E07B68B3F912
:102B54002630BB81B7F90C309BB201339BB21BB258
:102B6400BB81B7F90C30FB81B7F90E309AB27B68A0
:102B7400B3F92C309BB2D31A9BB21BB2FB817B6896
:102B8400B3F972407B68B3F972309AB27B68B3F9D7
:102B940076309BB213449BB21BB207F10C0107F1D0
:102BA4000E002246FFF75AFE0346002B01D10023F4
:102BB40023E0B7F90C309AB2B7F90E309BB2D31AAE
:102BC4009BB21AB27B689A85B7F90C309BB2013B71
:102BD4009BB21BB2BB817B68B3F926309AB2B7F9BA
:102BE4000C309BB2D31A9BB21AB27B681A86B7F91F
:102BF4000C207B68DA8400BF012318461437BD46D5
:102C040090BD00BF80B584B000AF78607868FFF7EE
:102C140079FE0346002B01D1002319E00023FB7346
:102C240012E07B6803F14601FA7B1346DB009B1A32
:102C34005B00CA187B68B3F9303019461046FEF7BA
:102C4400D8FAFB7B0133FB73FB7B022BE9D901230D
:102C540018461037BD4680BD90B583B000AF78608C
:102C64007B6893F8AF3003F00803002B06D07B6831
:102C7400DC69002300220B217868A0477B6893F865
:102C8400AF3023F00803DAB27B6883F8AF2000BFCB
:102C94000C37BD4690BD90B585B000AF78600B464B
:102CA4007B8013463B807B883B813B887B817868B3
:102CB400FFF7D2FF7B68002283F8AE207B68DC69D3
:102CC40007F1080300220A217868A0470346FB8124
:102CD400B7F90E30002B08D07B6893F8AF3043F07F
:102CE4000803DAB27B6883F8AF20B7F90E301846D0
:102CF4001437BD4690BD90B583B000AF78600846E8
:102D040011461A460346FB700B46BB7013467B7094
:102D1400FB78002B31D17B6893F8AE20BB7813404D
:102D2400DBB2002B08D07B6893F8AF20BB7813404C
:102D3400DBB2BA789A424BD17B68DC697B7819B2F2
:102D4400FB789AB200237868A0477B6893F8AF3089
:102D54005AB297F90230DB435BB213405BB2DAB28A
:102D64007B6883F8AF207B6893F8AE20BB7813436D
:102D7400DAB27B6883F8AE202AE07B6893F8AE2051
:102D8400BB781340DBB2002B07D07B6893F8AF20ED
:102D9400BB781340DBB2002B1AD17B68DC697B78EB
:102DA40019B2FB789AB200237868A0477B6893F83D
:102DB400AF20BB781343DAB27B6883F8AF207B681B
:102DC40093F8AE20BB781343DAB27B6883F8AE2065
:102DD40000BF0C37BD4690BD80B582B000AF7860AF
:102DE4000B46FB70F9780D2304227868FFF783FF04
:102DF40000BF0837BD4680BD80B582B000AF7860A3
:102E04000B46FB70F9780E2302227868FFF773FFF4
:102E140000BF0837BD4680BD80B582B000AF786082
:102E24000B46FB70F9780F2301227868FFF763FFE4
:102E340000BF0837BD4680BD90B583B000AF786051
:102E44000B467B807B68DC697A8800230C217868D8
:102E5400A04700BF0C37BD4690BD80B582B000AF1F
:102E640078600B467B8007E04FF47A717868FFF74F
:102E7400E3FF7B88013B7B807B88002BF4D100BF80
:102E84000837BD4680BD90B583B000AF78600B466F
:102E9400FB707B68DC69FB789AB2002310217868A8
:102EA400A04700BF0C37BD4690BD90B587B000AFBA
:102EB400F8600B467A607B8110E07B681B78FB75B9
:102EC400FB68DC69FB7D9AB200231021F868A047F7
:102ED4007B6801337B607B89013B7B817B89002B91
:102EE400EBD100BF1C37BD4690BD80B584B000AFA8
:102EF400F860B96011461A460B46FB711346BB7164
:102F0400FB6893F8B0305B08DBB203F00103DBB27B
:102F14001946F868FFF780FFFB799BB2BA68194637
:102F2400F868FFF7C2FFBB79002B14D0FB79BA68AD
:102F34001344BB60FB6893F8B03003F00103DBB2C9
:102F44001946F868FFF768FFBB799BB2BA6819465F
:102F5400F868FFF7AAFF00BF1037BD4680BD000028
:102F640080B584B000AF786039603B681B78FB7330
:102F7400FB7B1B09BB73FB7B03F00F037B73BB7BE6
:102F84000F2B00F2248101A252F823F0D331000860
:102F9400D12F0008D12F0008D12F0008D331000809
:102FA400D3310008F12F00082330000867300008EF
:102FB40093300008BF3000081F310008D3310008E7
:102FC400D3310008D33100087F3100083B68591C15
:102FD4007B7BBA7B7868FFF788FFBB7B5A1C7B7BC3
:102FE40013441A463B6813443B60EFE07B6893F854
:102FF400B03003F00103DBB219467868FFF70CFF29
:103004007B7B99B23B6801331A467868FFF74DFF22
:103014007B7B01331A463B6813443B60D6E07B68F4
:1030240093F8B0305B08DBB203F00103002B0CBF54
:1030340001230023DBB219467868FFF7EDFE7B7BA2
:10304400002B07D07B7B99B23B6801331A46786822
:10305400FFF72BFF7B7B01331A463B6813443B602D
:10306400B4E03B6801333B603B681B78FB737B7BBC
:103074009BB21B029AB2FB7B9BB213449BB21946D0
:103084007868FFF7EAFE3B6801333B609EE03B68EB
:1030940001333B603B681B78FB737B7B9BB21B0259
:1030A4009AB2FB7B9BB213449BB219467868FFF734
:1030B400C3FE3B6801333B6088E03B6801333B60FF
:1030C4003B681B78FB733B6801333B603B681B78B0
:1030D4003B733B6801333B607B6893F8B03003F08B
:1030E4000103DBB219467868FFF796FE7B68B3F9F3
:1030F40024301A467B68B3F920301A447B7B42FAA9
:1031040003F3DAB2FB7B1340DAB23B7B1343DBB24B
:1031140019467868FFF7B7FE58E03B6801333B6017
:103124003B681B78FB733B6801333B603B681B784F
:103134003B733B6801333B607B6893F8B03003F02A
:103144000103DBB219467868FFF766FE7B68B3F9C2
:1031540026301A467B68B3F922301A447B7B42FA44
:1031640003F3DAB2FB7B1340DAB23B7B1343DBB2EB
:1031740019467868FFF787FE28E07B7B9B08BB73C2
:103184007B7B03F003037B73BB7B012B0CD0032BF2
:1031940013D0002B16D17B7B03F00103DBB219465D
:1031A4007868FFF719FE0DE07B7B03F00103DBB2C7
:1031B40019467868FFF720FE04E07B687A7B83F881
:1031C400B02000BF3B6801333B6000BFCDE600BFC9
:1031D4001037BD4680BD00BF70B50D4B0D4D5B1B58
:1031E4009C100026A64209D100F01AF80A4D0B4B98
:1031F4005B1B9C100026A64205D170BD55F8043B0C
:1032040098470136EEE755F8043B98470136F2E754
:10321400103B0008103B0008103B0008143B00085A
:10322400F8B500BFF8BC08BC9E467047F8B500BFAF
:08323400F8BC08BC9E4670477F
:10323C0049206C6F766520456D6265646465640039
:10324C0050726F6772616D6D696E67007563675F51
:10325C0044726177537472696E670000000000005D
:10326C00000000000102030406070809000000002A
:10327C00010203040102030406070809F4113600D5
:10328C00102AA00000A0FF0062007F102BB00000ED
:10329C00B0FF0062009F102C70000000F41136008B
:1032AC00102AA00000A0FF00620081102BB00000CB
:1032BC00B0FF006200A0102C70000000F41136006A
:1032CC00102AA00000A0FF00A00000A0FF00102BFF
:1032DC00B00000B0FF0062009F102C7000000000D6
:1032EC00F4113640113640102AA00000A0FF0062F5
:1032FC00007F102BB80100B0FF0062009F102C70F3
:10330C0000000000F4113680113680102AA0000055
:10331C00A0FF00A00000A0FF00102BB00000B0FF29
:10332C000062009F102C7000F410101028F50000A3
:10333C00FDF1F58005F08005F18032F41011800A62
:10334C0010131020113A061029113600142A00000F
:10335C00007F142B0000009F102CF5005F0104026D
:10336C0005050103061010FFFD0CFD0CFE026C059B
:10337C00752007040EF91C01210D054E691A6F42C8
:10338C002D357A0800220A068E79917ECF1D0023F6
:10339C001E094ECA91542415494532834126928AFE
:1033AC006406834C2415494552913C0500241E09A2
:1033BC004E4AC1DC209488B490544806B1816C10FC
:1033CC005144228A488BD020174C0325260E8EFBA5
:1033DC00904D4C32886512314D229649E43289C4A5
:1033EC00689190E412995842134B6462914C2CB33F
:1033FC006726220D4EFB884150A2D3E4244245722D
:10340C0032C8243426928C454834494C0691C84025
:10341C00B2A705270903CE4891F64400280E068E64
:10342C00A9A1AA50AA67A9581D00290D068E69AD3D
:10343C0062A91EA542B5002A13080EBAA944892216
:10344C00A1D928129244559E43002B0E0A8EFAE401
:10345C00C96683412CD99E0A2C0B040EF90C249AB4
:10346C009208002D0A054EF90C06790A002E090463
:10347C000EF90C246A002F10054E99A14CA8269425
:10348C0009D584F22000301B094EBA839044138A6C
:10349C0088142285482152881422492823110DF2C0
:1034AC0004310D094EDAA941CE7F35D8C30132174C
:1034BC00094ECAAB4C914423D1C8746D8A22834106
:1034CC006430C8A3013315094EBA8350C68946A689
:1034DC001A9A68241A494634C8133418094EEA3922
:1034EC00D92AA14A8822A28826A3190C543AD5605D
:1034FC008F063518094EBA83CD20150C0E42124D8D
:10350C004827D14834928C6890273618094EBA83D4
:10351C0090449391E87483CDC44821528824468307
:10352C003C013714094EAA83416430888432A15C73
:10353C003017AC734F01381A094EBA83904413CA32
:10354C0068320BD120A49868162285486234C813BF
:10355C003918094EBA8390C4482152882492CD6000
:10356C0067A2C948447B0A003A0B040EF930891E45
:10357C002351033B0D040EF930891E23D1944400D2
:10358C003C0C0A8EFA8C650EA5EE29003D0E0A8EB7
:10359C00FADC0E067ADC60A067063E0C0A8EFAACEA
:1035AC00A40E65EE09013F1207CE999B8862A2C852
:1035BC00A84456B1B04A8F0440250E8EFBA0415052
:1035CC00A40A66320A4526A29094682225266D220A
:1035DC00998842128A98548654BA819E06411C0CD2
:1035EC000EFB906C74394C0823BA886C30488544B7
:1035FC0029514C32880CF47400421A0C0ECB832BDC
:10360C00CDC837AAC14024DAA8342A8D4A23920C9B
:10361C00EE2901431A0C0EFB88812233D2C822B347
:10362C00882E22359D656499516CA0A704441C0D0D
:10363C004EDB83814EB3325289641A9946A6916946
:10364C00542295487330D09303451C0C0ECB8383C6
:10365C0090AB90A448921BE8143A494E52A40A9994
:10366C000C0EF28400461B0BCEBA83838C48A3CA83
:10367C00486A24B1814C2193C42431A56EB027042F
:10368C00471E0D4EFB9081223432CBCC32BA8C5675
:10369C003490C8342B914AB4990D22795A004814AD
:1036AC000E8EEB83C560A3F257832BFF9BC162B0D8
:1036BC00A706490D07CE79838DCA7F33D8E3004A1C
:1036CC0013094ECA8395CE3719C9C446120A0DF296
:1036DC0014004B1F0D4EDB83C540235289629A9C0C
:1036EC0024A8102E749299462652892683C5404FE1
:1036FC000A4C140BCEBA839DD2AF32AA8C2A235219
:10370C000C0EF244004D2A100EFC88816AA059BDA3
:10371C004A6812AA8426A14A4C12AA8822A28A2894
:10372C0022AACC4495B1CAD80C2491819E11004E8A
:10373C00220D4EDB83D040B20A0D4215A28A4D28D1
:10374C0032096516A19022941AA54631C94095A755
:10375C00054F190D4EFB98A14665A4D2E8243A8971
:10376C004EA2D3A8442A1BE19E1C50170BCEBA8341
:10377C00231B9544255149449AC120A47437D8136E
:10378C000251200D4EFB98A14665A4D2E8243A893B
:10379C004E62A349448A2683946438C82A928AA824
:1037AC0006521C0C0ECB83814C64A5516944A2C1FA
:1037BC004CB212F92222520C06193D1D00531C0A60
:1037CC008EDA8344C6441551458603D940139AA416
:1037DC00242989469318E4690054170BCEBA8383C5
:1037EC0084C422A3496434898C26A5F4DD604F0679
:1037FC00551E0D4EDB83C940220BC942B2902C24BE
:10380C000BC942B2902C244B8972033D35005619DA
:10381C000C0ECB03CD6415528544314D4C92930460
:10382C0015C1E5349B27065728100EFC88416220F1
:10383C0099685419AB904693D2685293494C915065
:10384C00E41409453011490435D2503494670858B2
:10385C001E0BCEBA83CC20A1D2885292D820281528
:10386C000E62115548A3520C32833C0D0059170CB3
:10387C000ECB83C920A24A69629A9C22A8484A3D71
:10388C001CEC29015A190A8EBA8381442409694215
:10389C003A439D2623CA882222C5E09E025B0B0672
:1038AC008E799B54FFAB21005C110A8ECAC9683219
:1038BC009A8C26A3C968324F025D0A068E79ABFE3C
:1038CC006F86005E110A8EEA42DD201649494435A6
:1038DC00223DCF005F0A080EFAFC6E301002600821
:1038EC00054E59ED39016115094EFA4C06218946F0
:1038FC00221B2934128D44B4D0A3016214094E9AB0
:10390C003B7703914463A29168241A894D624F63FB
:10391C001007CEF9741B85894265A6D0EC81006432
:10392C00120A8EFA80A1AB8148A2F18F24AA859E3F
:10393C00026514080EFAC4A34C44A3180C12329D51
:10394C004433C863016610068E8913859166201175
:10395C00F966A00701671A094EFA4C06091345428D
:10396C00A2916824A241283898881422C960026860
:10397C00110A8EAA432F468B8DFFC92031C85300E4
:10398C00690D054E691AF1C64F067904006A0D05DA
:10399C004E791AF1C6BF482826006B180A8EAA4326
:1039AC002F061223856A101BA824228D649018E41C
:1039BC0029006C0B054E591BFF93411E016D150F11
:1039CC00CEFB3C584C469389C6FF9F0C1283C420F7
:1039DC00CF026E110A8EFAAC16A389C6FF6490183A
:1039EC00E429006F14080EFAC4238544A3D02834AC
:1039FC000A8D4421DA83017017094EFA0C142389BD
:103A0C00C64423D14834129B8148271BA40071154E
:103A1C00094EFA4C261137128D4423D19888063A58
:103A2C00B34102721007CEF9540BC9C244A17234CF
:103A3C00C823017312080EFAB48B889BCC6C93913B
:103A4C009824F66000741207CEF988584A34D0A82E
:103A5C003C8948327B2000750F0A8EFAAC261BFF7E
:103A6C008F06093D05007613094EFA0C0689414272
:103A7C00631252A866BB609E02771B0D4EFB5C2D39
:103A8C0006894142A2319184240AD562B6D8658256
:103A9C00993C35007816094EFA0C06898926A448FB
:103AAC00ED56095146B218E4D1007915094EFA0CBD
:103ABC0006898926A410296277C19C48919A017ABB
:103ACC0014080EFAB48349461251C954928826320E
:103ADC00D843017B0D068E99A15447B154CF820077
:103AEC007C0A0A8EEAC9FEF754007D0D068E79B168
:103AFC005467A1548FA2007E0B0A8EFABC9B98ECE3
:043B0C00390100007B
:043B1000B9010008EF
:043B1400950100080F
:083B180000BD0105FF000000E3
:04000005080002A944
:00000001FF
